{
  "_format": "hh-sol-artifact-1",
  "contractName": "InterchainProposalSender",
  "sourceName": "contracts/InterchainProposalSender.sol",
  "abi": [
    {
      "inputs": [
        {
          "internalType": "address",
          "name": "_gateway",
          "type": "address"
        },
        {
          "internalType": "address",
          "name": "_gasService",
          "type": "address"
        }
      ],
      "stateMutability": "nonpayable",
      "type": "constructor"
    },
    {
      "inputs": [],
      "name": "InvalidAddress",
      "type": "error"
    },
    {
      "inputs": [],
      "name": "InvalidFee",
      "type": "error"
    },
    {
      "inputs": [],
      "name": "gasService",
      "outputs": [
        {
          "internalType": "contract IAxelarGasService",
          "name": "",
          "type": "address"
        }
      ],
      "stateMutability": "view",
      "type": "function"
    },
    {
      "inputs": [],
      "name": "gateway",
      "outputs": [
        {
          "internalType": "contract IAxelarGateway",
          "name": "",
          "type": "address"
        }
      ],
      "stateMutability": "view",
      "type": "function"
    },
    {
      "inputs": [
        {
          "internalType": "string",
          "name": "destinationChain",
          "type": "string"
        },
        {
          "internalType": "string",
          "name": "destinationContract",
          "type": "string"
        },
        {
          "components": [
            {
              "internalType": "address",
              "name": "target",
              "type": "address"
            },
            {
              "internalType": "uint256",
              "name": "value",
              "type": "uint256"
            },
            {
              "internalType": "bytes",
              "name": "callData",
              "type": "bytes"
            }
          ],
          "internalType": "struct InterchainCalls.Call[]",
          "name": "calls",
          "type": "tuple[]"
        }
      ],
      "name": "sendProposal",
      "outputs": [],
      "stateMutability": "payable",
      "type": "function"
    },
    {
      "inputs": [
        {
          "components": [
            {
              "internalType": "string",
              "name": "destinationChain",
              "type": "string"
            },
            {
              "internalType": "string",
              "name": "destinationContract",
              "type": "string"
            },
            {
              "internalType": "uint256",
              "name": "gas",
              "type": "uint256"
            },
            {
              "components": [
                {
                  "internalType": "address",
                  "name": "target",
                  "type": "address"
                },
                {
                  "internalType": "uint256",
                  "name": "value",
                  "type": "uint256"
                },
                {
                  "internalType": "bytes",
                  "name": "callData",
                  "type": "bytes"
                }
              ],
              "internalType": "struct InterchainCalls.Call[]",
              "name": "calls",
              "type": "tuple[]"
            }
          ],
          "internalType": "struct InterchainCalls.InterchainCall[]",
          "name": "interchainCalls",
          "type": "tuple[]"
        }
      ],
      "name": "sendProposals",
      "outputs": [],
      "stateMutability": "payable",
      "type": "function"
    }
  ],
  "bytecode": "0x60c060405234801561001057600080fd5b50604051610b62380380610b6283398101604081905261002f9161009d565b6001600160a01b038216158061004c57506001600160a01b038116155b1561006a5760405163e6c4247b60e01b815260040160405180910390fd5b6001600160a01b039182166080521660a0526100d0565b80516001600160a01b038116811461009857600080fd5b919050565b600080604083850312156100b057600080fd5b6100b983610081565b91506100c760208401610081565b90509250929050565b60805160a051610a616101016000396000818160c801526102c7015260008181605601526103790152610a616000f3fe60806040526004361061003f5760003560e01c8063116191b61461004457806329ca154c146100a15780636a22d8cc146100b657806399882192146100ea575b600080fd5b34801561005057600080fd5b506100787f000000000000000000000000000000000000000000000000000000000000000081565b60405173ffffffffffffffffffffffffffffffffffffffff909116815260200160405180910390f35b6100b46100af366004610430565b6100fd565b005b3480156100c257600080fd5b506100787f000000000000000000000000000000000000000000000000000000000000000081565b6100b46100f836600461059d565b610156565b610107828261018a565b8060005b818110156101505761014884848381811061012857610128610628565b905060200281019061013a9190610657565b61014390610794565b61020d565b60010161010b565b50505050565b61015060405180608001604052808681526020018581526020013481526020018484906101839190610844565b905261020d565b600081815b818110156101d3578484828181106101a9576101a9610628565b90506020028101906101bb9190610657565b6101c9906040013584610851565b925060010161018f565b50348214610150576040517f58d620b300000000000000000000000000000000000000000000000000000000815260040160405180910390fd5b6040517fffffffffffffffffffffffffffffffffffffffff0000000000000000000000003360601b16602082015260009060340160408051601f19818403018152908290526060840151610263926020016108d7565b60408051601f1981840301815291815283015190915015610335576040808301518351602085015192517f0c93e3bb00000000000000000000000000000000000000000000000000000000815273ffffffffffffffffffffffffffffffffffffffff7f00000000000000000000000000000000000000000000000000000000000000001693630c93e3bb9392610302923092908890339060040161097c565b6000604051808303818588803b15801561031b57600080fd5b505af115801561032f573d6000803e3d6000fd5b50505050505b815160208301516040517f1c92115f00000000000000000000000000000000000000000000000000000000815273ffffffffffffffffffffffffffffffffffffffff7f00000000000000000000000000000000000000000000000000000000000000001692631c92115f926103ae9286906004016109e8565b600060405180830381600087803b1580156103c857600080fd5b505af11580156103dc573d6000803e3d6000fd5b505050505050565b60008083601f8401126103f657600080fd5b50813567ffffffffffffffff81111561040e57600080fd5b6020830191508360208260051b850101111561042957600080fd5b9250929050565b6000806020838503121561044357600080fd5b823567ffffffffffffffff81111561045a57600080fd5b610466858286016103e4565b90969095509350505050565b7f4e487b7100000000000000000000000000000000000000000000000000000000600052604160045260246000fd5b6040516060810167ffffffffffffffff811182821017156104c4576104c4610472565b60405290565b6040516080810167ffffffffffffffff811182821017156104c4576104c4610472565b604051601f8201601f1916810167ffffffffffffffff8111828210171561051657610516610472565b604052919050565b600067ffffffffffffffff83111561053857610538610472565b61054b6020601f19601f860116016104ed565b905082815283838301111561055f57600080fd5b828260208301376000602084830101529392505050565b600082601f83011261058757600080fd5b6105968383356020850161051e565b9392505050565b600080600080606085870312156105b357600080fd5b843567ffffffffffffffff808211156105cb57600080fd5b6105d788838901610576565b955060208701359150808211156105ed57600080fd5b6105f988838901610576565b9450604087013591508082111561060f57600080fd5b5061061c878288016103e4565b95989497509550505050565b7f4e487b7100000000000000000000000000000000000000000000000000000000600052603260045260246000fd5b600082357fffffffffffffffffffffffffffffffffffffffffffffffffffffffffffffff8183360301811261068b57600080fd5b9190910192915050565b600067ffffffffffffffff808411156106b0576106b0610472565b8360051b60206106c18183016104ed565b868152935090840190808401878311156106da57600080fd5b855b83811015610788578035858111156106f45760008081fd5b87016060818b0312156107075760008081fd5b61070f6104a1565b813573ffffffffffffffffffffffffffffffffffffffff811681146107345760008081fd5b81528185013585820152604080830135888111156107525760008081fd5b8084019350508b601f8401126107685760008081fd5b6107768c843588860161051e565b908201528352509082019082016106dc565b50505050509392505050565b6000608082360312156107a657600080fd5b6107ae6104ca565b823567ffffffffffffffff808211156107c657600080fd5b6107d236838701610576565b835260208501359150808211156107e857600080fd5b6107f436838701610576565b602084015260408501356040840152606085013591508082111561081757600080fd5b50830136601f82011261082957600080fd5b61083836823560208401610695565b60608301525092915050565b6000610596368484610695565b8082018082111561088b577f4e487b7100000000000000000000000000000000000000000000000000000000600052601160045260246000fd5b92915050565b6000815180845260005b818110156108b75760208185018101518683018201520161089b565b506000602082860101526020601f19601f83011685010191505092915050565b600060408083526108ea81840186610891565b6020848203818601528186518084528284019150828160051b85010183890160005b8381101561096c57868303601f190185528151805173ffffffffffffffffffffffffffffffffffffffff1684528681015187850152880151606089850181905261095881860183610891565b96880196945050509085019060010161090c565b50909a9950505050505050505050565b600073ffffffffffffffffffffffffffffffffffffffff808816835260a060208401526109ac60a0840188610891565b83810360408501526109be8188610891565b905083810360608501526109d28187610891565b9250508084166080840152509695505050505050565b6060815260006109fb6060830186610891565b8281036020840152610a0d8186610891565b90508281036040840152610a218185610891565b969550505050505056fea264697066735822122044fd6281e095b1e5ec705e8f06d28e7bb3d5a0549daf5b288ef15da3ace489b364736f6c63430008130033",
  "linkReferences": {},
  "deployedLinkReferences": {}
}